{"contracts/Raffle.sol":{"Raffle":{"abi":[{"inputs":[{"internalType":"address","name":"vrfCoordinatorV2","type":"address"},{"internalType":"uint256","name":"entranceFee","type":"uint256"},{"internalType":"bytes32","name":"gasLane","type":"bytes32"},{"internalType":"uint32","name":"subscriptionId","type":"uint32"},{"internalType":"uint32","name":"callbackGasLimit","type":"uint32"},{"internalType":"uint32","name":"interval","type":"uint32"}],"stateMutability":"nonpayable","type":"constructor"},{"inputs":[{"internalType":"address","name":"have","type":"address"},{"internalType":"address","name":"want","type":"address"}],"name":"OnlyCoordinatorCanFulfill","type":"error"},{"inputs":[],"name":"Raffle__NotEnoughEthEntered","type":"error"},{"inputs":[],"name":"Raffle__NotOpen","type":"error"},{"anonymous":false,"inputs":[{"indexed":true,"internalType":"address","name":"player","type":"address"}],"name":"RaffleEntered","type":"event"},{"inputs":[{"internalType":"bytes","name":"checkData","type":"bytes"}],"name":"checkUpkeep","outputs":[{"internalType":"bool","name":"upkeepNeeded","type":"bool"},{"internalType":"bytes","name":"performData","type":"bytes"}],"stateMutability":"nonpayable","type":"function"},{"inputs":[],"name":"enterRaffle","outputs":[],"stateMutability":"payable","type":"function"},{"inputs":[{"internalType":"bytes","name":"","type":"bytes"}],"name":"performUpkeep","outputs":[],"stateMutability":"nonpayable","type":"function"},{"inputs":[{"internalType":"uint256","name":"requestId","type":"uint256"},{"internalType":"uint256[]","name":"randomWords","type":"uint256[]"}],"name":"rawFulfillRandomWords","outputs":[],"stateMutability":"nonpayable","type":"function"}],"devdoc":{"kind":"dev","methods":{"checkUpkeep(bytes)":{"details":"To ensure that it is never called, you may want to add the cannotExecute modifier from KeeperBase to your implementation of this method.","params":{"checkData":"specified in the upkeep registration so it is always the same for a registered upkeep. This can easily be broken down into specific arguments using `abi.decode`, so multiple upkeeps can be registered on the same contract and easily differentiated by the contract."},"returns":{"performData":"bytes that the keeper should call performUpkeep with, if upkeep is needed. If you would like to encode data to decode later, try `abi.encode`.","upkeepNeeded":"boolean to indicate whether the keeper should call performUpkeep or not."}}},"version":1},"evm":{"bytecode":{"linkReferences":{},"object":"6101606040523480156200001257600080fd5b5060405162000b4738038062000b478339818101604052810190620000389190620001ab565b858073ffffffffffffffffffffffffffffffffffffffff1660808173ffffffffffffffffffffffffffffffffffffffff1660601b81525050508573ffffffffffffffffffffffffffffffffffffffff1660a08173ffffffffffffffffffffffffffffffffffffffff1660601b815250508461012081815250508360c081815250508263ffffffff166101008163ffffffff1660e01b815250508163ffffffff1667ffffffffffffffff1660e08167ffffffffffffffff1660c01b815250508063ffffffff166101408163ffffffff1660e01b81525050426002819055506000600160146101000a81548160ff021916908360018111156200013e576200013d6200029f565b5b02179055505050505050506200033b565b6000815190506200016081620002d3565b92915050565b6000815190506200017781620002ed565b92915050565b6000815190506200018e8162000307565b92915050565b600081519050620001a58162000321565b92915050565b60008060008060008060c08789031215620001cb57620001ca620002ce565b5b6000620001db89828a016200014f565b9650506020620001ee89828a016200017d565b95505060406200020189828a0162000166565b94505060606200021489828a0162000194565b93505060806200022789828a0162000194565b92505060a06200023a89828a0162000194565b9150509295509295509295565b6000620002548262000265565b9050919050565b6000819050919050565b600073ffffffffffffffffffffffffffffffffffffffff82169050919050565b6000819050919050565b600063ffffffff82169050919050565b7f4e487b7100000000000000000000000000000000000000000000000000000000600052602160045260246000fd5b600080fd5b620002de8162000247565b8114620002ea57600080fd5b50565b620002f8816200025b565b81146200030457600080fd5b50565b620003128162000285565b81146200031e57600080fd5b50565b6200032c816200028f565b81146200033857600080fd5b50565b60805160601c60a05160601c60c05160e05160c01c6101005160e01c610120516101405160e01c6107ab6200039c6000396000505060006101a00152600050506000505060005050600050506000818160e0015261013401526107ab6000f3fe60806040526004361061003f5760003560e01c80631fe543e3146100445780632cfcc5391461006d5780634585e33b146100775780636e04ff0d146100a0575b600080fd5b34801561005057600080fd5b5061006b600480360381019061006691906104b1565b6100de565b005b61007561019e565b005b34801561008357600080fd5b5061009e60048036038101906100999190610464565b61030d565b005b3480156100ac57600080fd5b506100c760048036038101906100c29190610464565b610311565b6040516100d592919061058d565b60405180910390f35b7f000000000000000000000000000000000000000000000000000000000000000073ffffffffffffffffffffffffffffffffffffffff163373ffffffffffffffffffffffffffffffffffffffff161461019057337f00000000000000000000000000000000000000000000000000000000000000006040517f1cf993f4000000000000000000000000000000000000000000000000000000008152600401610187929190610564565b60405180910390fd5b61019a8282610357565b5050565b7f00000000000000000000000000000000000000000000000000000000000000003410156101f8576040517f066d781f00000000000000000000000000000000000000000000000000000000815260040160405180910390fd5b6000600181111561020c5761020b6106d6565b5b600160149054906101000a900460ff16600181111561022e5761022d6106d6565b5b14610265576040517f1425571c00000000000000000000000000000000000000000000000000000000815260040160405180910390fd5b6000339080600181540180825580915050600190039060005260206000200160009091909190916101000a81548173ffffffffffffffffffffffffffffffffffffffff021916908373ffffffffffffffffffffffffffffffffffffffff1602179055503373ffffffffffffffffffffffffffffffffffffffff167f634f3211e3a4e43fee5a21ad9f87ca153b300fc78b1c557a2057dbe9c63bcb4760405160405180910390a2565b5050565b60006060816040518060400160405280600381526020017f3078300000000000000000000000000000000000000000000000000000000000815250915091509250929050565b5050565b600061036e610369846105e2565b6105bd565b905080838252602082019050828560208602820111156103915761039061073e565b5b60005b858110156103c157816103a7888261044f565b845260208401935060208301925050600181019050610394565b5050509392505050565b600082601f8301126103e0576103df610739565b5b81356103f084826020860161035b565b91505092915050565b60008083601f84011261040f5761040e610739565b5b8235905067ffffffffffffffff81111561042c5761042b610734565b5b6020830191508360018202830111156104485761044761073e565b5b9250929050565b60008135905061045e8161075e565b92915050565b6000806020838503121561047b5761047a610748565b5b600083013567ffffffffffffffff81111561049957610498610743565b5b6104a5858286016103f9565b92509250509250929050565b600080604083850312156104c8576104c7610748565b5b60006104d68582860161044f565b925050602083013567ffffffffffffffff8111156104f7576104f6610743565b5b610503858286016103cb565b9150509250929050565b6105168161062a565b82525050565b6105258161063c565b82525050565b60006105368261060e565b6105408185610619565b9350610550818560208601610672565b6105598161074d565b840191505092915050565b6000604082019050610579600083018561050d565b610586602083018461050d565b9392505050565b60006040820190506105a2600083018561051c565b81810360208301526105b4818461052b565b90509392505050565b60006105c76105d8565b90506105d382826106a5565b919050565b6000604051905090565b600067ffffffffffffffff8211156105fd576105fc610705565b5b602082029050602081019050919050565b600081519050919050565b600082825260208201905092915050565b600061063582610648565b9050919050565b60008115159050919050565b600073ffffffffffffffffffffffffffffffffffffffff82169050919050565b6000819050919050565b60005b83811015610690578082015181840152602081019050610675565b8381111561069f576000848401525b50505050565b6106ae8261074d565b810181811067ffffffffffffffff821117156106cd576106cc610705565b5b80604052505050565b7f4e487b7100000000000000000000000000000000000000000000000000000000600052602160045260246000fd5b7f4e487b7100000000000000000000000000000000000000000000000000000000600052604160045260246000fd5b600080fd5b600080fd5b600080fd5b600080fd5b600080fd5b6000601f19601f8301169050919050565b61076781610668565b811461077257600080fd5b5056fea2646970667358221220fe5dc2f5bc83667e71f723b83873cda6c1cdf093b9d30440e7529de038ad932364736f6c63430008070033","opcodes":"PUSH2 0x160 PUSH1 0x40 MSTORE CALLVALUE DUP1 ISZERO PUSH3 0x12 JUMPI PUSH1 0x0 DUP1 REVERT JUMPDEST POP PUSH1 0x40 MLOAD PUSH3 0xB47 CODESIZE SUB DUP1 PUSH3 0xB47 DUP4 CODECOPY DUP2 DUP2 ADD PUSH1 0x40 MSTORE DUP2 ADD SWAP1 PUSH3 0x38 SWAP2 SWAP1 PUSH3 0x1AB JUMP JUMPDEST DUP6 DUP1 PUSH20 0xFFFFFFFFFFFFFFFFFFFFFFFFFFFFFFFFFFFFFFFF AND PUSH1 0x80 DUP2 PUSH20 0xFFFFFFFFFFFFFFFFFFFFFFFFFFFFFFFFFFFFFFFF AND PUSH1 0x60 SHL DUP2 MSTORE POP POP POP DUP6 PUSH20 0xFFFFFFFFFFFFFFFFFFFFFFFFFFFFFFFFFFFFFFFF AND PUSH1 0xA0 DUP2 PUSH20 0xFFFFFFFFFFFFFFFFFFFFFFFFFFFFFFFFFFFFFFFF AND PUSH1 0x60 SHL DUP2 MSTORE POP POP DUP5 PUSH2 0x120 DUP2 DUP2 MSTORE POP POP DUP4 PUSH1 0xC0 DUP2 DUP2 MSTORE POP POP DUP3 PUSH4 0xFFFFFFFF AND PUSH2 0x100 DUP2 PUSH4 0xFFFFFFFF AND PUSH1 0xE0 SHL DUP2 MSTORE POP POP DUP2 PUSH4 0xFFFFFFFF AND PUSH8 0xFFFFFFFFFFFFFFFF AND PUSH1 0xE0 DUP2 PUSH8 0xFFFFFFFFFFFFFFFF AND PUSH1 0xC0 SHL DUP2 MSTORE POP POP DUP1 PUSH4 0xFFFFFFFF AND PUSH2 0x140 DUP2 PUSH4 0xFFFFFFFF AND PUSH1 0xE0 SHL DUP2 MSTORE POP POP TIMESTAMP PUSH1 0x2 DUP2 SWAP1 SSTORE POP PUSH1 0x0 PUSH1 0x1 PUSH1 0x14 PUSH2 0x100 EXP DUP2 SLOAD DUP2 PUSH1 0xFF MUL NOT AND SWAP1 DUP4 PUSH1 0x1 DUP2 GT ISZERO PUSH3 0x13E JUMPI PUSH3 0x13D PUSH3 0x29F JUMP JUMPDEST JUMPDEST MUL OR SWAP1 SSTORE POP POP POP POP POP POP POP PUSH3 0x33B JUMP JUMPDEST PUSH1 0x0 DUP2 MLOAD SWAP1 POP PUSH3 0x160 DUP2 PUSH3 0x2D3 JUMP JUMPDEST SWAP3 SWAP2 POP POP JUMP JUMPDEST PUSH1 0x0 DUP2 MLOAD SWAP1 POP PUSH3 0x177 DUP2 PUSH3 0x2ED JUMP JUMPDEST SWAP3 SWAP2 POP POP JUMP JUMPDEST PUSH1 0x0 DUP2 MLOAD SWAP1 POP PUSH3 0x18E DUP2 PUSH3 0x307 JUMP JUMPDEST SWAP3 SWAP2 POP POP JUMP JUMPDEST PUSH1 0x0 DUP2 MLOAD SWAP1 POP PUSH3 0x1A5 DUP2 PUSH3 0x321 JUMP JUMPDEST SWAP3 SWAP2 POP POP JUMP JUMPDEST PUSH1 0x0 DUP1 PUSH1 0x0 DUP1 PUSH1 0x0 DUP1 PUSH1 0xC0 DUP8 DUP10 SUB SLT ISZERO PUSH3 0x1CB JUMPI PUSH3 0x1CA PUSH3 0x2CE JUMP JUMPDEST JUMPDEST PUSH1 0x0 PUSH3 0x1DB DUP10 DUP3 DUP11 ADD PUSH3 0x14F JUMP JUMPDEST SWAP7 POP POP PUSH1 0x20 PUSH3 0x1EE DUP10 DUP3 DUP11 ADD PUSH3 0x17D JUMP JUMPDEST SWAP6 POP POP PUSH1 0x40 PUSH3 0x201 DUP10 DUP3 DUP11 ADD PUSH3 0x166 JUMP JUMPDEST SWAP5 POP POP PUSH1 0x60 PUSH3 0x214 DUP10 DUP3 DUP11 ADD PUSH3 0x194 JUMP JUMPDEST SWAP4 POP POP PUSH1 0x80 PUSH3 0x227 DUP10 DUP3 DUP11 ADD PUSH3 0x194 JUMP JUMPDEST SWAP3 POP POP PUSH1 0xA0 PUSH3 0x23A DUP10 DUP3 DUP11 ADD PUSH3 0x194 JUMP JUMPDEST SWAP2 POP POP SWAP3 SWAP6 POP SWAP3 SWAP6 POP SWAP3 SWAP6 JUMP JUMPDEST PUSH1 0x0 PUSH3 0x254 DUP3 PUSH3 0x265 JUMP JUMPDEST SWAP1 POP SWAP2 SWAP1 POP JUMP JUMPDEST PUSH1 0x0 DUP2 SWAP1 POP SWAP2 SWAP1 POP JUMP JUMPDEST PUSH1 0x0 PUSH20 0xFFFFFFFFFFFFFFFFFFFFFFFFFFFFFFFFFFFFFFFF DUP3 AND SWAP1 POP SWAP2 SWAP1 POP JUMP JUMPDEST PUSH1 0x0 DUP2 SWAP1 POP SWAP2 SWAP1 POP JUMP JUMPDEST PUSH1 0x0 PUSH4 0xFFFFFFFF DUP3 AND SWAP1 POP SWAP2 SWAP1 POP JUMP JUMPDEST PUSH32 0x4E487B7100000000000000000000000000000000000000000000000000000000 PUSH1 0x0 MSTORE PUSH1 0x21 PUSH1 0x4 MSTORE PUSH1 0x24 PUSH1 0x0 REVERT JUMPDEST PUSH1 0x0 DUP1 REVERT JUMPDEST PUSH3 0x2DE DUP2 PUSH3 0x247 JUMP JUMPDEST DUP2 EQ PUSH3 0x2EA JUMPI PUSH1 0x0 DUP1 REVERT JUMPDEST POP JUMP JUMPDEST PUSH3 0x2F8 DUP2 PUSH3 0x25B JUMP JUMPDEST DUP2 EQ PUSH3 0x304 JUMPI PUSH1 0x0 DUP1 REVERT JUMPDEST POP JUMP JUMPDEST PUSH3 0x312 DUP2 PUSH3 0x285 JUMP JUMPDEST DUP2 EQ PUSH3 0x31E JUMPI PUSH1 0x0 DUP1 REVERT JUMPDEST POP JUMP JUMPDEST PUSH3 0x32C DUP2 PUSH3 0x28F JUMP JUMPDEST DUP2 EQ PUSH3 0x338 JUMPI PUSH1 0x0 DUP1 REVERT JUMPDEST POP JUMP JUMPDEST PUSH1 0x80 MLOAD PUSH1 0x60 SHR PUSH1 0xA0 MLOAD PUSH1 0x60 SHR PUSH1 0xC0 MLOAD PUSH1 0xE0 MLOAD PUSH1 0xC0 SHR PUSH2 0x100 MLOAD PUSH1 0xE0 SHR PUSH2 0x120 MLOAD PUSH2 0x140 MLOAD PUSH1 0xE0 SHR PUSH2 0x7AB PUSH3 0x39C PUSH1 0x0 CODECOPY PUSH1 0x0 POP POP PUSH1 0x0 PUSH2 0x1A0 ADD MSTORE PUSH1 0x0 POP POP PUSH1 0x0 POP POP PUSH1 0x0 POP POP PUSH1 0x0 POP POP PUSH1 0x0 DUP2 DUP2 PUSH1 0xE0 ADD MSTORE PUSH2 0x134 ADD MSTORE PUSH2 0x7AB PUSH1 0x0 RETURN INVALID PUSH1 0x80 PUSH1 0x40 MSTORE PUSH1 0x4 CALLDATASIZE LT PUSH2 0x3F JUMPI PUSH1 0x0 CALLDATALOAD PUSH1 0xE0 SHR DUP1 PUSH4 0x1FE543E3 EQ PUSH2 0x44 JUMPI DUP1 PUSH4 0x2CFCC539 EQ PUSH2 0x6D JUMPI DUP1 PUSH4 0x4585E33B EQ PUSH2 0x77 JUMPI DUP1 PUSH4 0x6E04FF0D EQ PUSH2 0xA0 JUMPI JUMPDEST PUSH1 0x0 DUP1 REVERT JUMPDEST CALLVALUE DUP1 ISZERO PUSH2 0x50 JUMPI PUSH1 0x0 DUP1 REVERT JUMPDEST POP PUSH2 0x6B PUSH1 0x4 DUP1 CALLDATASIZE SUB DUP2 ADD SWAP1 PUSH2 0x66 SWAP2 SWAP1 PUSH2 0x4B1 JUMP JUMPDEST PUSH2 0xDE JUMP JUMPDEST STOP JUMPDEST PUSH2 0x75 PUSH2 0x19E JUMP JUMPDEST STOP JUMPDEST CALLVALUE DUP1 ISZERO PUSH2 0x83 JUMPI PUSH1 0x0 DUP1 REVERT JUMPDEST POP PUSH2 0x9E PUSH1 0x4 DUP1 CALLDATASIZE SUB DUP2 ADD SWAP1 PUSH2 0x99 SWAP2 SWAP1 PUSH2 0x464 JUMP JUMPDEST PUSH2 0x30D JUMP JUMPDEST STOP JUMPDEST CALLVALUE DUP1 ISZERO PUSH2 0xAC JUMPI PUSH1 0x0 DUP1 REVERT JUMPDEST POP PUSH2 0xC7 PUSH1 0x4 DUP1 CALLDATASIZE SUB DUP2 ADD SWAP1 PUSH2 0xC2 SWAP2 SWAP1 PUSH2 0x464 JUMP JUMPDEST PUSH2 0x311 JUMP JUMPDEST PUSH1 0x40 MLOAD PUSH2 0xD5 SWAP3 SWAP2 SWAP1 PUSH2 0x58D JUMP JUMPDEST PUSH1 0x40 MLOAD DUP1 SWAP2 SUB SWAP1 RETURN JUMPDEST PUSH32 0x0 PUSH20 0xFFFFFFFFFFFFFFFFFFFFFFFFFFFFFFFFFFFFFFFF AND CALLER PUSH20 0xFFFFFFFFFFFFFFFFFFFFFFFFFFFFFFFFFFFFFFFF AND EQ PUSH2 0x190 JUMPI CALLER PUSH32 0x0 PUSH1 0x40 MLOAD PUSH32 0x1CF993F400000000000000000000000000000000000000000000000000000000 DUP2 MSTORE PUSH1 0x4 ADD PUSH2 0x187 SWAP3 SWAP2 SWAP1 PUSH2 0x564 JUMP JUMPDEST PUSH1 0x40 MLOAD DUP1 SWAP2 SUB SWAP1 REVERT JUMPDEST PUSH2 0x19A DUP3 DUP3 PUSH2 0x357 JUMP JUMPDEST POP POP JUMP JUMPDEST PUSH32 0x0 CALLVALUE LT ISZERO PUSH2 0x1F8 JUMPI PUSH1 0x40 MLOAD PUSH32 0x66D781F00000000000000000000000000000000000000000000000000000000 DUP2 MSTORE PUSH1 0x4 ADD PUSH1 0x40 MLOAD DUP1 SWAP2 SUB SWAP1 REVERT JUMPDEST PUSH1 0x0 PUSH1 0x1 DUP2 GT ISZERO PUSH2 0x20C JUMPI PUSH2 0x20B PUSH2 0x6D6 JUMP JUMPDEST JUMPDEST PUSH1 0x1 PUSH1 0x14 SWAP1 SLOAD SWAP1 PUSH2 0x100 EXP SWAP1 DIV PUSH1 0xFF AND PUSH1 0x1 DUP2 GT ISZERO PUSH2 0x22E JUMPI PUSH2 0x22D PUSH2 0x6D6 JUMP JUMPDEST JUMPDEST EQ PUSH2 0x265 JUMPI PUSH1 0x40 MLOAD PUSH32 0x1425571C00000000000000000000000000000000000000000000000000000000 DUP2 MSTORE PUSH1 0x4 ADD PUSH1 0x40 MLOAD DUP1 SWAP2 SUB SWAP1 REVERT JUMPDEST PUSH1 0x0 CALLER SWAP1 DUP1 PUSH1 0x1 DUP2 SLOAD ADD DUP1 DUP3 SSTORE DUP1 SWAP2 POP POP PUSH1 0x1 SWAP1 SUB SWAP1 PUSH1 0x0 MSTORE PUSH1 0x20 PUSH1 0x0 KECCAK256 ADD PUSH1 0x0 SWAP1 SWAP2 SWAP1 SWAP2 SWAP1 SWAP2 PUSH2 0x100 EXP DUP2 SLOAD DUP2 PUSH20 0xFFFFFFFFFFFFFFFFFFFFFFFFFFFFFFFFFFFFFFFF MUL NOT AND SWAP1 DUP4 PUSH20 0xFFFFFFFFFFFFFFFFFFFFFFFFFFFFFFFFFFFFFFFF AND MUL OR SWAP1 SSTORE POP CALLER PUSH20 0xFFFFFFFFFFFFFFFFFFFFFFFFFFFFFFFFFFFFFFFF AND PUSH32 0x634F3211E3A4E43FEE5A21AD9F87CA153B300FC78B1C557A2057DBE9C63BCB47 PUSH1 0x40 MLOAD PUSH1 0x40 MLOAD DUP1 SWAP2 SUB SWAP1 LOG2 JUMP JUMPDEST POP POP JUMP JUMPDEST PUSH1 0x0 PUSH1 0x60 DUP2 PUSH1 0x40 MLOAD DUP1 PUSH1 0x40 ADD PUSH1 0x40 MSTORE DUP1 PUSH1 0x3 DUP2 MSTORE PUSH1 0x20 ADD PUSH32 0x3078300000000000000000000000000000000000000000000000000000000000 DUP2 MSTORE POP SWAP2 POP SWAP2 POP SWAP3 POP SWAP3 SWAP1 POP JUMP JUMPDEST POP POP JUMP JUMPDEST PUSH1 0x0 PUSH2 0x36E PUSH2 0x369 DUP5 PUSH2 0x5E2 JUMP JUMPDEST PUSH2 0x5BD JUMP JUMPDEST SWAP1 POP DUP1 DUP4 DUP3 MSTORE PUSH1 0x20 DUP3 ADD SWAP1 POP DUP3 DUP6 PUSH1 0x20 DUP7 MUL DUP3 ADD GT ISZERO PUSH2 0x391 JUMPI PUSH2 0x390 PUSH2 0x73E JUMP JUMPDEST JUMPDEST PUSH1 0x0 JUMPDEST DUP6 DUP2 LT ISZERO PUSH2 0x3C1 JUMPI DUP2 PUSH2 0x3A7 DUP9 DUP3 PUSH2 0x44F JUMP JUMPDEST DUP5 MSTORE PUSH1 0x20 DUP5 ADD SWAP4 POP PUSH1 0x20 DUP4 ADD SWAP3 POP POP PUSH1 0x1 DUP2 ADD SWAP1 POP PUSH2 0x394 JUMP JUMPDEST POP POP POP SWAP4 SWAP3 POP POP POP JUMP JUMPDEST PUSH1 0x0 DUP3 PUSH1 0x1F DUP4 ADD SLT PUSH2 0x3E0 JUMPI PUSH2 0x3DF PUSH2 0x739 JUMP JUMPDEST JUMPDEST DUP2 CALLDATALOAD PUSH2 0x3F0 DUP5 DUP3 PUSH1 0x20 DUP7 ADD PUSH2 0x35B JUMP JUMPDEST SWAP2 POP POP SWAP3 SWAP2 POP POP JUMP JUMPDEST PUSH1 0x0 DUP1 DUP4 PUSH1 0x1F DUP5 ADD SLT PUSH2 0x40F JUMPI PUSH2 0x40E PUSH2 0x739 JUMP JUMPDEST JUMPDEST DUP3 CALLDATALOAD SWAP1 POP PUSH8 0xFFFFFFFFFFFFFFFF DUP2 GT ISZERO PUSH2 0x42C JUMPI PUSH2 0x42B PUSH2 0x734 JUMP JUMPDEST JUMPDEST PUSH1 0x20 DUP4 ADD SWAP2 POP DUP4 PUSH1 0x1 DUP3 MUL DUP4 ADD GT ISZERO PUSH2 0x448 JUMPI PUSH2 0x447 PUSH2 0x73E JUMP JUMPDEST JUMPDEST SWAP3 POP SWAP3 SWAP1 POP JUMP JUMPDEST PUSH1 0x0 DUP2 CALLDATALOAD SWAP1 POP PUSH2 0x45E DUP2 PUSH2 0x75E JUMP JUMPDEST SWAP3 SWAP2 POP POP JUMP JUMPDEST PUSH1 0x0 DUP1 PUSH1 0x20 DUP4 DUP6 SUB SLT ISZERO PUSH2 0x47B JUMPI PUSH2 0x47A PUSH2 0x748 JUMP JUMPDEST JUMPDEST PUSH1 0x0 DUP4 ADD CALLDATALOAD PUSH8 0xFFFFFFFFFFFFFFFF DUP2 GT ISZERO PUSH2 0x499 JUMPI PUSH2 0x498 PUSH2 0x743 JUMP JUMPDEST JUMPDEST PUSH2 0x4A5 DUP6 DUP3 DUP7 ADD PUSH2 0x3F9 JUMP JUMPDEST SWAP3 POP SWAP3 POP POP SWAP3 POP SWAP3 SWAP1 POP JUMP JUMPDEST PUSH1 0x0 DUP1 PUSH1 0x40 DUP4 DUP6 SUB SLT ISZERO PUSH2 0x4C8 JUMPI PUSH2 0x4C7 PUSH2 0x748 JUMP JUMPDEST JUMPDEST PUSH1 0x0 PUSH2 0x4D6 DUP6 DUP3 DUP7 ADD PUSH2 0x44F JUMP JUMPDEST SWAP3 POP POP PUSH1 0x20 DUP4 ADD CALLDATALOAD PUSH8 0xFFFFFFFFFFFFFFFF DUP2 GT ISZERO PUSH2 0x4F7 JUMPI PUSH2 0x4F6 PUSH2 0x743 JUMP JUMPDEST JUMPDEST PUSH2 0x503 DUP6 DUP3 DUP7 ADD PUSH2 0x3CB JUMP JUMPDEST SWAP2 POP POP SWAP3 POP SWAP3 SWAP1 POP JUMP JUMPDEST PUSH2 0x516 DUP2 PUSH2 0x62A JUMP JUMPDEST DUP3 MSTORE POP POP JUMP JUMPDEST PUSH2 0x525 DUP2 PUSH2 0x63C JUMP JUMPDEST DUP3 MSTORE POP POP JUMP JUMPDEST PUSH1 0x0 PUSH2 0x536 DUP3 PUSH2 0x60E JUMP JUMPDEST PUSH2 0x540 DUP2 DUP6 PUSH2 0x619 JUMP JUMPDEST SWAP4 POP PUSH2 0x550 DUP2 DUP6 PUSH1 0x20 DUP7 ADD PUSH2 0x672 JUMP JUMPDEST PUSH2 0x559 DUP2 PUSH2 0x74D JUMP JUMPDEST DUP5 ADD SWAP2 POP POP SWAP3 SWAP2 POP POP JUMP JUMPDEST PUSH1 0x0 PUSH1 0x40 DUP3 ADD SWAP1 POP PUSH2 0x579 PUSH1 0x0 DUP4 ADD DUP6 PUSH2 0x50D JUMP JUMPDEST PUSH2 0x586 PUSH1 0x20 DUP4 ADD DUP5 PUSH2 0x50D JUMP JUMPDEST SWAP4 SWAP3 POP POP POP JUMP JUMPDEST PUSH1 0x0 PUSH1 0x40 DUP3 ADD SWAP1 POP PUSH2 0x5A2 PUSH1 0x0 DUP4 ADD DUP6 PUSH2 0x51C JUMP JUMPDEST DUP2 DUP2 SUB PUSH1 0x20 DUP4 ADD MSTORE PUSH2 0x5B4 DUP2 DUP5 PUSH2 0x52B JUMP JUMPDEST SWAP1 POP SWAP4 SWAP3 POP POP POP JUMP JUMPDEST PUSH1 0x0 PUSH2 0x5C7 PUSH2 0x5D8 JUMP JUMPDEST SWAP1 POP PUSH2 0x5D3 DUP3 DUP3 PUSH2 0x6A5 JUMP JUMPDEST SWAP2 SWAP1 POP JUMP JUMPDEST PUSH1 0x0 PUSH1 0x40 MLOAD SWAP1 POP SWAP1 JUMP JUMPDEST PUSH1 0x0 PUSH8 0xFFFFFFFFFFFFFFFF DUP3 GT ISZERO PUSH2 0x5FD JUMPI PUSH2 0x5FC PUSH2 0x705 JUMP JUMPDEST JUMPDEST PUSH1 0x20 DUP3 MUL SWAP1 POP PUSH1 0x20 DUP2 ADD SWAP1 POP SWAP2 SWAP1 POP JUMP JUMPDEST PUSH1 0x0 DUP2 MLOAD SWAP1 POP SWAP2 SWAP1 POP JUMP JUMPDEST PUSH1 0x0 DUP3 DUP3 MSTORE PUSH1 0x20 DUP3 ADD SWAP1 POP SWAP3 SWAP2 POP POP JUMP JUMPDEST PUSH1 0x0 PUSH2 0x635 DUP3 PUSH2 0x648 JUMP JUMPDEST SWAP1 POP SWAP2 SWAP1 POP JUMP JUMPDEST PUSH1 0x0 DUP2 ISZERO ISZERO SWAP1 POP SWAP2 SWAP1 POP JUMP JUMPDEST PUSH1 0x0 PUSH20 0xFFFFFFFFFFFFFFFFFFFFFFFFFFFFFFFFFFFFFFFF DUP3 AND SWAP1 POP SWAP2 SWAP1 POP JUMP JUMPDEST PUSH1 0x0 DUP2 SWAP1 POP SWAP2 SWAP1 POP JUMP JUMPDEST PUSH1 0x0 JUMPDEST DUP4 DUP2 LT ISZERO PUSH2 0x690 JUMPI DUP1 DUP3 ADD MLOAD DUP2 DUP5 ADD MSTORE PUSH1 0x20 DUP2 ADD SWAP1 POP PUSH2 0x675 JUMP JUMPDEST DUP4 DUP2 GT ISZERO PUSH2 0x69F JUMPI PUSH1 0x0 DUP5 DUP5 ADD MSTORE JUMPDEST POP POP POP POP JUMP JUMPDEST PUSH2 0x6AE DUP3 PUSH2 0x74D JUMP JUMPDEST DUP2 ADD DUP2 DUP2 LT PUSH8 0xFFFFFFFFFFFFFFFF DUP3 GT OR ISZERO PUSH2 0x6CD JUMPI PUSH2 0x6CC PUSH2 0x705 JUMP JUMPDEST JUMPDEST DUP1 PUSH1 0x40 MSTORE POP POP POP JUMP JUMPDEST PUSH32 0x4E487B7100000000000000000000000000000000000000000000000000000000 PUSH1 0x0 MSTORE PUSH1 0x21 PUSH1 0x4 MSTORE PUSH1 0x24 PUSH1 0x0 REVERT JUMPDEST PUSH32 0x4E487B7100000000000000000000000000000000000000000000000000000000 PUSH1 0x0 MSTORE PUSH1 0x41 PUSH1 0x4 MSTORE PUSH1 0x24 PUSH1 0x0 REVERT JUMPDEST PUSH1 0x0 DUP1 REVERT JUMPDEST PUSH1 0x0 DUP1 REVERT JUMPDEST PUSH1 0x0 DUP1 REVERT JUMPDEST PUSH1 0x0 DUP1 REVERT JUMPDEST PUSH1 0x0 DUP1 REVERT JUMPDEST PUSH1 0x0 PUSH1 0x1F NOT PUSH1 0x1F DUP4 ADD AND SWAP1 POP SWAP2 SWAP1 POP JUMP JUMPDEST PUSH2 0x767 DUP2 PUSH2 0x668 JUMP JUMPDEST DUP2 EQ PUSH2 0x772 JUMPI PUSH1 0x0 DUP1 REVERT JUMPDEST POP JUMP INVALID LOG2 PUSH5 0x6970667358 0x22 SLT KECCAK256 INVALID 0x5D 0xC2 CREATE2 0xBC DUP4 PUSH7 0x7E71F723B83873 0xCD 0xA6 0xC1 0xCD CREATE SWAP4 0xB9 0xD3 DIV BLOCKHASH 0xE7 MSTORE SWAP14 0xE0 CODESIZE 0xAD SWAP4 0x23 PUSH5 0x736F6C6343 STOP ADDMOD SMOD STOP CALLER "},"gasEstimates":{"creation":{"codeDepositCost":"392600","executionCost":"infinite","totalCost":"infinite"},"external":{"checkUpkeep(bytes)":"infinite","enterRaffle()":"infinite","performUpkeep(bytes)":"496","rawFulfillRandomWords(uint256,uint256[])":"infinite"},"internal":{"fulfillRandomWords(uint256,uint256[] memory)":"13"}},"methodIdentifiers":{"checkUpkeep(bytes)":"6e04ff0d","enterRaffle()":"2cfcc539","performUpkeep(bytes)":"4585e33b","rawFulfillRandomWords(uint256,uint256[])":"1fe543e3"}},"storageLayout":{"storage":[{"astId":205,"contract":"contracts/Raffle.sol:Raffle","label":"s_players","offset":0,"slot":"0","type":"t_array(t_address_payable)dyn_storage"},{"astId":207,"contract":"contracts/Raffle.sol:Raffle","label":"s_recentWinner","offset":0,"slot":"1","type":"t_address"},{"astId":210,"contract":"contracts/Raffle.sol:Raffle","label":"s_raffleState","offset":20,"slot":"1","type":"t_enum(RaffleState)181"},{"astId":212,"contract":"contracts/Raffle.sol:Raffle","label":"s_lastTimeStamp","offset":0,"slot":"2","type":"t_uint256"}],"types":{"t_address":{"encoding":"inplace","label":"address","numberOfBytes":"20"},"t_address_payable":{"encoding":"inplace","label":"address payable","numberOfBytes":"20"},"t_array(t_address_payable)dyn_storage":{"base":"t_address_payable","encoding":"dynamic_array","label":"address payable[]","numberOfBytes":"32"},"t_enum(RaffleState)181":{"encoding":"inplace","label":"enum Raffle.RaffleState","numberOfBytes":"1"},"t_uint256":{"encoding":"inplace","label":"uint256","numberOfBytes":"32"}}},"userdoc":{"kind":"user","methods":{"checkUpkeep(bytes)":{"notice":"method that is simulated by the keepers to see if any work actually needs to be performed. This method does does not actually need to be executable, and since it is only ever simulated it can consume lots of gas."}},"version":1}}}}