{
  "_format": "hh-sol-artifact-1",
  "contractName": "Raffle",
  "sourceName": "contracts/Raffle.sol",
  "abi": [
    {
      "inputs": [
        {
          "internalType": "address",
          "name": "vrfCoordinatorV2",
          "type": "address"
        },
        {
          "internalType": "uint256",
          "name": "entranceFee",
          "type": "uint256"
        },
        {
          "internalType": "bytes32",
          "name": "gasLane",
          "type": "bytes32"
        },
        {
          "internalType": "uint32",
          "name": "subscriptionId",
          "type": "uint32"
        },
        {
          "internalType": "uint32",
          "name": "callbackGasLimit",
          "type": "uint32"
        },
        {
          "internalType": "uint32",
          "name": "interval",
          "type": "uint32"
        }
      ],
      "stateMutability": "nonpayable",
      "type": "constructor"
    },
    {
      "inputs": [
        {
          "internalType": "address",
          "name": "have",
          "type": "address"
        },
        {
          "internalType": "address",
          "name": "want",
          "type": "address"
        }
      ],
      "name": "OnlyCoordinatorCanFulfill",
      "type": "error"
    },
    {
      "inputs": [],
      "name": "Raffle_UpkeepNotNeeded",
      "type": "error"
    },
    {
      "inputs": [],
      "name": "Raffle__NotEnoughEthEntered",
      "type": "error"
    },
    {
      "inputs": [],
      "name": "Raffle__NotOpen",
      "type": "error"
    },
    {
      "inputs": [],
      "name": "Raffle__TransactionFailed",
      "type": "error"
    },
    {
      "anonymous": false,
      "inputs": [
        {
          "indexed": true,
          "internalType": "address",
          "name": "player",
          "type": "address"
        }
      ],
      "name": "RaffleEntered",
      "type": "event"
    },
    {
      "anonymous": false,
      "inputs": [
        {
          "indexed": true,
          "internalType": "uint256",
          "name": "requestId",
          "type": "uint256"
        }
      ],
      "name": "RequestedRaffleWinner",
      "type": "event"
    },
    {
      "anonymous": false,
      "inputs": [
        {
          "indexed": true,
          "internalType": "address",
          "name": "winner",
          "type": "address"
        }
      ],
      "name": "WinnerPicked",
      "type": "event"
    },
    {
      "inputs": [
        {
          "internalType": "bytes",
          "name": "",
          "type": "bytes"
        }
      ],
      "name": "checkUpkeep",
      "outputs": [
        {
          "internalType": "bool",
          "name": "upkeepNeeded",
          "type": "bool"
        },
        {
          "internalType": "bytes",
          "name": "performData",
          "type": "bytes"
        }
      ],
      "stateMutability": "nonpayable",
      "type": "function"
    },
    {
      "inputs": [],
      "name": "enterRaffle",
      "outputs": [],
      "stateMutability": "payable",
      "type": "function"
    },
    {
      "inputs": [],
      "name": "getEntranceFee",
      "outputs": [
        {
          "internalType": "uint256",
          "name": "",
          "type": "uint256"
        }
      ],
      "stateMutability": "view",
      "type": "function"
    },
    {
      "inputs": [],
      "name": "getInterval",
      "outputs": [
        {
          "internalType": "uint32",
          "name": "",
          "type": "uint32"
        }
      ],
      "stateMutability": "view",
      "type": "function"
    },
    {
      "inputs": [],
      "name": "getLastTimeStamp",
      "outputs": [
        {
          "internalType": "uint256",
          "name": "",
          "type": "uint256"
        }
      ],
      "stateMutability": "view",
      "type": "function"
    },
    {
      "inputs": [],
      "name": "getNumOfPlayers",
      "outputs": [
        {
          "internalType": "uint256",
          "name": "",
          "type": "uint256"
        }
      ],
      "stateMutability": "view",
      "type": "function"
    },
    {
      "inputs": [],
      "name": "getNumWords",
      "outputs": [
        {
          "internalType": "uint16",
          "name": "",
          "type": "uint16"
        }
      ],
      "stateMutability": "view",
      "type": "function"
    },
    {
      "inputs": [
        {
          "internalType": "uint32",
          "name": "index",
          "type": "uint32"
        }
      ],
      "name": "getPlayer",
      "outputs": [
        {
          "internalType": "address",
          "name": "",
          "type": "address"
        }
      ],
      "stateMutability": "view",
      "type": "function"
    },
    {
      "inputs": [],
      "name": "getRaffleState",
      "outputs": [
        {
          "internalType": "enum Raffle.RaffleState",
          "name": "",
          "type": "uint8"
        }
      ],
      "stateMutability": "view",
      "type": "function"
    },
    {
      "inputs": [],
      "name": "getRecentWinner",
      "outputs": [
        {
          "internalType": "address",
          "name": "",
          "type": "address"
        }
      ],
      "stateMutability": "view",
      "type": "function"
    },
    {
      "inputs": [],
      "name": "getRequestConfirmations",
      "outputs": [
        {
          "internalType": "uint16",
          "name": "",
          "type": "uint16"
        }
      ],
      "stateMutability": "view",
      "type": "function"
    },
    {
      "inputs": [
        {
          "internalType": "bytes",
          "name": "",
          "type": "bytes"
        }
      ],
      "name": "performUpkeep",
      "outputs": [],
      "stateMutability": "nonpayable",
      "type": "function"
    },
    {
      "inputs": [
        {
          "internalType": "uint256",
          "name": "requestId",
          "type": "uint256"
        },
        {
          "internalType": "uint256[]",
          "name": "randomWords",
          "type": "uint256[]"
        }
      ],
      "name": "rawFulfillRandomWords",
      "outputs": [],
      "stateMutability": "nonpayable",
      "type": "function"
    }
  ],
  "bytecode": "0x6101606040523480156200001257600080fd5b50604051620018753803806200187583398181016040528101906200003891906200019d565b858073ffffffffffffffffffffffffffffffffffffffff1660808173ffffffffffffffffffffffffffffffffffffffff1660601b81525050508573ffffffffffffffffffffffffffffffffffffffff1660a08173ffffffffffffffffffffffffffffffffffffffff1660601b815250508461012081815250508360c081815250508263ffffffff166101008163ffffffff1660e01b815250508163ffffffff1660e08163ffffffff1660e01b815250508063ffffffff166101408163ffffffff1660e01b81525050426002819055506000600160146101000a81548160ff0219169083600181111562000130576200012f62000291565b5b02179055505050505050506200032d565b6000815190506200015281620002c5565b92915050565b6000815190506200016981620002df565b92915050565b6000815190506200018081620002f9565b92915050565b600081519050620001978162000313565b92915050565b60008060008060008060c08789031215620001bd57620001bc620002c0565b5b6000620001cd89828a0162000141565b9650506020620001e089828a016200016f565b9550506040620001f389828a0162000158565b94505060606200020689828a0162000186565b93505060806200021989828a0162000186565b92505060a06200022c89828a0162000186565b9150509295509295509295565b6000620002468262000257565b9050919050565b6000819050919050565b600073ffffffffffffffffffffffffffffffffffffffff82169050919050565b6000819050919050565b600063ffffffff82169050919050565b7f4e487b7100000000000000000000000000000000000000000000000000000000600052602160045260246000fd5b600080fd5b620002d08162000239565b8114620002dc57600080fd5b50565b620002ea816200024d565b8114620002f657600080fd5b50565b620003048162000277565b81146200031057600080fd5b50565b6200031e8162000281565b81146200032a57600080fd5b50565b60805160601c60a05160601c60c05160e05160e01c6101005160e01c610120516101405160e01c6114c9620003ac600039600081816107de01526108da0152600081816102fa01526103f7015260006106690152600061068c015260006106480152600061060c015260008181610337015261038b01526114c96000f3fe6080604052600436106100c25760003560e01c806353a2c19a1161007f5780636e04ff0d116100595780636e04ff0d146102255780638e768e5e1461026357806391ad27b4146102a0578063c1c244e8146102cb576100c2565b806353a2c19a146101a4578063565429de146101cf5780635f1b0fd8146101fa576100c2565b806309bc33a7146100c7578063115cbaf5146100f25780631fe543e31461011d5780632cfcc539146101465780634585e33b14610150578063473f1ddc14610179575b600080fd5b3480156100d357600080fd5b506100dc6102f6565b6040516100e991906110c4565b60405180910390f35b3480156100fe57600080fd5b5061010761031e565b604051610114919061108e565b60405180910390f35b34801561012957600080fd5b50610144600480360381019061013f9190610e46565b610335565b005b61014e6103f5565b005b34801561015c57600080fd5b5061017760048036038101906101729190610d83565b610564565b005b34801561018557600080fd5b5061018e610754565b60405161019b9190610fc7565b60405180910390f35b3480156101b057600080fd5b506101b961077e565b6040516101c691906110a9565b60405180910390f35b3480156101db57600080fd5b506101e4610787565b6040516101f191906110c4565b60405180910390f35b34801561020657600080fd5b5061020f610793565b60405161021c91906110a9565b60405180910390f35b34801561023157600080fd5b5061024c60048036038101906102479190610dd0565b61079c565b60405161025a92919061100b565b60405180910390f35b34801561026f57600080fd5b5061028a60048036038101906102859190610ea2565b610889565b6040516102979190610fc7565b60405180910390f35b3480156102ac57600080fd5b506102b56108d6565b6040516102c291906110df565b60405180910390f35b3480156102d757600080fd5b506102e06108fe565b6040516102ed91906110c4565b60405180910390f35b60007f0000000000000000000000000000000000000000000000000000000000000000905090565b6000600160149054906101000a900460ff16905090565b7f000000000000000000000000000000000000000000000000000000000000000073ffffffffffffffffffffffffffffffffffffffff163373ffffffffffffffffffffffffffffffffffffffff16146103e757337f00000000000000000000000000000000000000000000000000000000000000006040517f1cf993f40000000000000000000000000000000000000000000000000000000081526004016103de929190610fe2565b60405180910390fd5b6103f18282610908565b5050565b7f000000000000000000000000000000000000000000000000000000000000000034101561044f576040517f066d781f00000000000000000000000000000000000000000000000000000000815260040160405180910390fd5b6000600181111561046357610462611392565b5b600160149054906101000a900460ff16600181111561048557610484611392565b5b146104bc576040517f1425571c00000000000000000000000000000000000000000000000000000000815260040160405180910390fd5b6000339080600181540180825580915050600190039060005260206000200160009091909190916101000a81548173ffffffffffffffffffffffffffffffffffffffff021916908373ffffffffffffffffffffffffffffffffffffffff1602179055503373ffffffffffffffffffffffffffffffffffffffff167f634f3211e3a4e43fee5a21ad9f87ca153b300fc78b1c557a2057dbe9c63bcb4760405160405180910390a2565b60006105a46040518060400160405280600381526020017f307830000000000000000000000000000000000000000000000000000000000081525061079c565b509050806105de576040517f4f6ddb1900000000000000000000000000000000000000000000000000000000815260040160405180910390fd5b60018060146101000a81548160ff0219169083600181111561060357610602611392565b5b021790555060007f000000000000000000000000000000000000000000000000000000000000000073ffffffffffffffffffffffffffffffffffffffff16635d3b1d307f00000000000000000000000000000000000000000000000000000000000000007f000000000000000000000000000000000000000000000000000000000000000060037f000000000000000000000000000000000000000000000000000000000000000060016040518663ffffffff1660e01b81526004016106cd95949392919061103b565b602060405180830381600087803b1580156106e757600080fd5b505af11580156106fb573d6000803e3d6000fd5b505050506040513d601f19601f8201168201806040525081019061071f9190610e19565b9050807fcd6e45c8998311cab7e9d4385596cac867e20a0587194b954fa3a731c93ce78b60405160405180910390a250505050565b6000600160009054906101000a900473ffffffffffffffffffffffffffffffffffffffff16905090565b60006001905090565b60008080549050905090565b60006003905090565b6000606060008060018111156107b5576107b4611392565b5b600160149054906101000a900460ff1660018111156107d7576107d6611392565b5b14905060007f000000000000000000000000000000000000000000000000000000000000000063ffffffff166002544261081191906111a3565b119050600080600080549050119050600080471190508380156108315750825b801561083a5750815b80156108435750805b9550856040518060400160405280600381526020017f30783000000000000000000000000000000000000000000000000000000000008152509550955050505050915091565b6000808263ffffffff16815481106108a4576108a36113c1565b5b9060005260206000200160009054906101000a900473ffffffffffffffffffffffffffffffffffffffff169050919050565b60007f0000000000000000000000000000000000000000000000000000000000000000905090565b6000600254905090565b6000808054905082600081518110610923576109226113c1565b5b60200260200101516109359190611303565b9050600080828154811061094c5761094b6113c1565b5b9060005260206000200160009054906101000a900473ffffffffffffffffffffffffffffffffffffffff16905080600160006101000a81548173ffffffffffffffffffffffffffffffffffffffff021916908373ffffffffffffffffffffffffffffffffffffffff160217905550600067ffffffffffffffff8111156109d5576109d46113f0565b5b604051908082528060200260200182016040528015610a035781602001602082028036833780820191505090505b5060009080519060200190610a19929190610b39565b506000600160146101000a81548160ff02191690836001811115610a4057610a3f611392565b5b02179055504260028190555060008173ffffffffffffffffffffffffffffffffffffffff1647604051610a7290610fb2565b60006040518083038185875af1925050503d8060008114610aaf576040519150601f19603f3d011682016040523d82523d6000602084013e610ab4565b606091505b5050905080610aef576040517f8dea0f0700000000000000000000000000000000000000000000000000000000815260040160405180910390fd5b8173ffffffffffffffffffffffffffffffffffffffff167f5b690ec4a06fe979403046eaeea5b3ce38524683c3001f662c8b5a829632f7df60405160405180910390a25050505050565b828054828255906000526020600020908101928215610bb2579160200282015b82811115610bb15782518260006101000a81548173ffffffffffffffffffffffffffffffffffffffff021916908373ffffffffffffffffffffffffffffffffffffffff16021790555091602001919060010190610b59565b5b509050610bbf9190610bc3565b5090565b5b80821115610bdc576000816000905550600101610bc4565b5090565b6000610bf3610bee8461111f565b6110fa565b90508083825260208201905082856020860282011115610c1657610c15611429565b5b60005b85811015610c465781610c2c8882610d44565b845260208401935060208301925050600181019050610c19565b5050509392505050565b6000610c63610c5e8461114b565b6110fa565b905082815260208101848484011115610c7f57610c7e61142e565b5b610c8a848285611290565b509392505050565b600082601f830112610ca757610ca6611424565b5b8135610cb7848260208601610be0565b91505092915050565b60008083601f840112610cd657610cd5611424565b5b8235905067ffffffffffffffff811115610cf357610cf261141f565b5b602083019150836001820283011115610d0f57610d0e611429565b5b9250929050565b600082601f830112610d2b57610d2a611424565b5b8135610d3b848260208601610c50565b91505092915050565b600081359050610d5381611465565b92915050565b600081519050610d6881611465565b92915050565b600081359050610d7d8161147c565b92915050565b60008060208385031215610d9a57610d99611438565b5b600083013567ffffffffffffffff811115610db857610db7611433565b5b610dc485828601610cc0565b92509250509250929050565b600060208284031215610de657610de5611438565b5b600082013567ffffffffffffffff811115610e0457610e03611433565b5b610e1084828501610d16565b91505092915050565b600060208284031215610e2f57610e2e611438565b5b6000610e3d84828501610d59565b91505092915050565b60008060408385031215610e5d57610e5c611438565b5b6000610e6b85828601610d44565b925050602083013567ffffffffffffffff811115610e8c57610e8b611433565b5b610e9885828601610c92565b9150509250929050565b600060208284031215610eb857610eb7611438565b5b6000610ec684828501610d6e565b91505092915050565b610ed8816111d7565b82525050565b610ee7816111e9565b82525050565b610ef6816111f5565b82525050565b6000610f078261117c565b610f118185611187565b9350610f2181856020860161129f565b610f2a8161143d565b840191505092915050565b610f3e8161125a565b82525050565b6000610f51600083611198565b9150610f5c8261144e565b600082019050919050565b610f7081611212565b82525050565b610f7f8161126c565b82525050565b610f8e81611240565b82525050565b610f9d8161124a565b82525050565b610fac8161127e565b82525050565b6000610fbd82610f44565b9150819050919050565b6000602082019050610fdc6000830184610ecf565b92915050565b6000604082019050610ff76000830185610ecf565b6110046020830184610ecf565b9392505050565b60006040820190506110206000830185610ede565b81810360208301526110328184610efc565b90509392505050565b600060a0820190506110506000830188610eed565b61105d6020830187610fa3565b61106a6040830186610f67565b6110776060830185610f94565b6110846080830184610f76565b9695505050505050565b60006020820190506110a36000830184610f35565b92915050565b60006020820190506110be6000830184610f67565b92915050565b60006020820190506110d96000830184610f85565b92915050565b60006020820190506110f46000830184610f94565b92915050565b6000611104611115565b905061111082826112d2565b919050565b6000604051905090565b600067ffffffffffffffff82111561113a576111396113f0565b5b602082029050602081019050919050565b600067ffffffffffffffff821115611166576111656113f0565b5b61116f8261143d565b9050602081019050919050565b600081519050919050565b600082825260208201905092915050565b600081905092915050565b60006111ae82611240565b91506111b983611240565b9250828210156111cc576111cb611334565b5b828203905092915050565b60006111e282611220565b9050919050565b60008115159050919050565b6000819050919050565b600081905061120d82611451565b919050565b600061ffff82169050919050565b600073ffffffffffffffffffffffffffffffffffffffff82169050919050565b6000819050919050565b600063ffffffff82169050919050565b6000611265826111ff565b9050919050565b600061127782611212565b9050919050565b60006112898261124a565b9050919050565b82818337600083830152505050565b60005b838110156112bd5780820151818401526020810190506112a2565b838111156112cc576000848401525b50505050565b6112db8261143d565b810181811067ffffffffffffffff821117156112fa576112f96113f0565b5b80604052505050565b600061130e82611240565b915061131983611240565b92508261132957611328611363565b5b828206905092915050565b7f4e487b7100000000000000000000000000000000000000000000000000000000600052601160045260246000fd5b7f4e487b7100000000000000000000000000000000000000000000000000000000600052601260045260246000fd5b7f4e487b7100000000000000000000000000000000000000000000000000000000600052602160045260246000fd5b7f4e487b7100000000000000000000000000000000000000000000000000000000600052603260045260246000fd5b7f4e487b7100000000000000000000000000000000000000000000000000000000600052604160045260246000fd5b600080fd5b600080fd5b600080fd5b600080fd5b600080fd5b600080fd5b6000601f19601f8301169050919050565b50565b6002811061146257611461611392565b5b50565b61146e81611240565b811461147957600080fd5b50565b6114858161124a565b811461149057600080fd5b5056fea264697066735822122007fdf86e1a63d101baeeb3746a53baeae4f96ed42fdaa550a8694bdc34279b7464736f6c63430008070033",
  "linkReferences": {},
  "deployedLinkReferences": {}
}